:020000040800F2
:10000000684E0020D1110008F5110008F711000812
:10001000FB110008FF110008031200080000000097
:1000200000000000000000000000000007120008AF
:100030000912000800000000473200080B120008F7
:10004000EB110008EB110008EB110008EB110008A0
:10005000EB110008EB110008EB110008EB11000890
:10006000EB110008EB110008EB110008EB11000880
:10007000EB110008EB110008EB110008EB11000870
:10008000EB110008EB110008EB110008EB11000860
:10009000EB110008EB110008EB110008EB11000850
:1000A000EB110008EB110008EB110008EB11000840
:1000B000EB110008EB110008EB110008EB11000830
:1000C000EB110008EB110008EB110008EB11000820
:1000D000EB11000885350008EB110008EB11000852
:1000E000EB110008EB110008EB110008DFF80CD051
:1000F00004F066FD0048004743130008684E0020E6
:1001000031490143314A1160704770B50021002325
:100110000F22C47804B32D4C246804F4E064C4F5C1
:10012000E064210AC1F10403CA40447804FA03F1EF
:100130008478144021430901254C0678A1550478A0
:1001400004F01F050124AC4005786D11AD0005F1E8
:10015000E025C5F8004109E0047804F01F050124FA
:10016000AC401C4D0678761145F8264070BD1A4A01
:100170000A400243154B1B1F1A60704739B1134ADE
:10018000121D12680243114B1B1D1A6006E00F4A34
:10019000121D126882430D4B1B1D1A607047042804
:1001A00008D14FF0E021096941F004014FF0E0224D
:1001B000116107E04FF0E021096921F004014FF0DF
:1001C000E0221161704700000000FA050CED00E02C
:1001D00000E400E080E100E080FFFF1FDF480068EE
:1001E00040F00100DD49086008464068DC490840ED
:1001F000DA49486008460068DA490840D74908608B
:100200000846006820F4802008600846406820F412
:10021000FE0048604FF41F0088607047CF490968AE
:1002200021F48031CD4A11601146096821F4802102
:100230001160B0F5803F03D0B0F5802F0ED106E0FD
:10024000C649096841F48031C44A116007E0C349D6
:10025000096841F4A021C14A116000E000BF00BF5D
:10026000704710B501460022002300204A11012AE0
:1002700002D1BA4C236806E0022A02D1B74C236AA5
:1002800001E0B64C636A01F01F02012494401C4057
:100290000CB1012000E0002010BD38B50020009016
:1002A0000024002500BF3120FFF7DBFF0546009842
:1002B000401C00900098B0F5A06F01D0002DF2D046
:1002C0003120FFF7CEFF08B1012400E000242046D2
:1002D00038BD01460020A14A106820F0F80040EA2D
:1002E000C10010607047A0490860704702460020B6
:1002F0009A4B586820F47C1042EA01031843974B4C
:100300005860704798490866704701460020934A34
:10031000506820F003000843506070478F484068E1
:1003200000F00C007047014600208C4A506820F015
:10033000F00008435060704701460020874A50682B
:1003400020F4E06008435060704701460020834A73
:10035000506820F4605040EAC1005060704729B1F5
:100360007E4A527A02437D4B5A7204E07B4A527AAB
:1003700082437A4B5A7270477B49D8310860704784
:1003800001460020754A506820F440400843506000
:1003900070470021714A20321170704A82F8201093
:1003A000012802D004280AD104E001216B4A20323E
:1003B000117005E00521694A2032117000E000BF8C
:1003C00000BF70476949086070476449096A014382
:1003D000624A11627047654944390860704730B518
:1003E00000210022002400235C4D6D6805F00C0103
:1003F00021B1042905D0082923D105E05C4D056011
:1004000022E05B4D05601FE0544D6D6805F47012ED
:10041000524D6D6805F48034022505EB92421CB9FB
:10042000544D554305600BE04C4D6D6805F40035A7
:100430001DB1504D5543056002E04D4D55430560DB
:1004400002E04B4D056000BF00BF444D6D6805F0F4
:10045000F0010909484D6B5C0568DD4045603F4D82
:100460006D6805F4E061090A434D6B5C4568DD4049
:1004700085603A4D6D6805F46051C90A3E4D6B5C6C
:100480004568DD40C560354D6D6805F44041890B18
:100490003A4D6B5CC568B5FBF3F5056130BD29B11C
:1004A0002E4A526902432D4B5A6104E02B4A52698D
:1004B00082432A4B5A61704729B1284A9269024304
:1004C000264B9A6104E0254A92698243234B9A6144
:1004D000704729B1214AD2690243204BDA6104E016
:1004E0001E4AD26982431D4BDA61704729B11B4A0B
:1004F000D2680243194BDA6004E0184AD26882439A
:10050000164BDA60704729B1144A12690243134B43
:100510001A6104E0114A12698243104B1A61704754
:1005200012494039086070470F49C86470470B4949
:10053000C87170470948406A40F0807007494862B6
:10054000704701460020054A92680A400AB101201E
:1005500000E0002070470149887270470010024097
:100560000000FFF8FFFFF6FE000042428004424216
:1005700000127A0000093D00000000201000002059
:1005800010B50446CC48844208D101210420FFF76D
:10059000ADFF00210420FFF7A9FF46E0C7488442D1
:1005A00008D101210820FFF7A1FF00210820FFF753
:1005B0009DFF3AE0C248844208D101211020FFF794
:1005C00095FF00211020FFF791FF2EE0BD488442E7
:1005D00008D101212020FFF789FF00212020FFF70B
:1005E00085FF22E0B848844208D101214020FFF76E
:1005F0007DFF00214020FFF779FF16E0B3488442D9
:1006000008D101218020FFF771FF00218020FFF732
:100610006DFF0AE0AE48844207D101218015FFF743
:1006200065FF0021A015FFF761FF10BD10B5012186
:100630000846FFF75BFF00210120FFF757FF10BDC1
:100640002DE9F04102460025002600200023002469
:10065000002791F803C00CF00F0591F803C00CF0CF
:10066000100CBCF1000F03D091F802C04CEA050554
:1006700091F800C0BCF1000F31D0146800202BE0CD
:100680004FF0010C0CFA00F3B1F800C00CEA0306BD
:100690009E4220D183004FF00F0C0CFA03F7BC43AD
:1006A00005FA03FC4CEA040491F803C0BCF1280FDE
:1006B00006D14FF0010C0CFA00FCC2F814C00AE09D
:1006C00091F803C0BCF1480F05D14FF0010C0CFAB2
:1006D00000FCC2F810C0401C0828D1D31460B1F847
:1006E00000C0BCF1FF0F34DD546800202EE000F1A3
:1006F000080C4FF0010808FA0CF3B1F800C00CEA3E
:1007000003069E4221D183004FF00F0C0CFA03F731
:10071000BC4305FA03FC4CEA040491F803C0BCF1A5
:10072000280F05D100F1080C08FA0CF8C2F8148063
:1007300091F803C0BCF1480F07D100F1080C4FF04D
:10074000010808FA0CF8C2F81080401C0828CED323
:100750005460BDE8F0814FF6FF7101800221817085
:100760000421C17070470246002093680B400BB112
:10077000012000E0002070470146886880B2704781
:1007800002460020D3680B400BB1012000E000209E
:1007900070470146C86880B2704701617047416187
:1007A00070470AB1016100E041617047C160704764
:1007B0004FF480320A438261816182618269826979
:1007C000704702460020434B18684FF6807318406C
:1007D00040EA021008433F4B186070473E49C86129
:1007E0007047F0B50A46002300240021002500F0E0
:1007F0000046B6F1004F02D1364EF16901E0354EA8
:100800007168C0F3034583B200F44016B6F5401F8B
:1008100008D121F070612F4E766826F070662D4F5A
:100820007E6012E000F48016B6F5801F06D1032624
:1008300006FA05F4A14341F0706106E0460D360169
:1008400003FA06F6B14341F0706122B1460D36015C
:1008500003FA06F6314300F00046B6F1004F02D12C
:100860001C4EF16101E01B4E7160F0BD30B50022FD
:100870008B071C0F0F2303FA04F2164B08338C105E
:1008800053F824309343134C08348D1044F825302A
:1008900023468C1053F824308C07240F00FA04F4FC
:1008A00023430C4C08348D1044F8253030BD0A49E0
:1008B000DC3108607047000000080140000C014076
:1008C000001001400014014000180140001C0140CC
:1008D00000200140000001400000204210B5044605
:1008E000BE48844208D101218014FFF7FFFD00219A
:1008F000A014FFF7FBFD16E0B948844208D101219E
:100900000014FFF700FE00212014FFF7FCFD0AE0B1
:10091000B448844207D10121C013FFF7F4FD002140
:10092000E013FFF7F0FD10BD10B50022028802F4BD
:1009300041520B884C8823438C882343CC88234323
:100940000C8923434C8923438C892343CC8923433B
:100950001A430280838B4FF2FF74234083830B8AF8
:10096000038210BD2DE9F04F85B005460C464FF0CF
:10097000000902274FF000084FF0010B0026B24695
:10098000A88B4FF240010840A88302202884B5F8C4
:100990001C90A068022801D100BF38E0A08810B9DF
:1009A0004FF0010B01E04FF0020B8D48854200D162
:1009B00000E000BF6846FFF712FDDDF800A0E08808
:1009C000B0F5007F0AD14FEA1A2000EB800040000A
:1009D000A168B0FBF1F0401D86B20BE04FEA4B106E
:1009E000BAFBF0F000EB80004000A168B0FBF1F032
:1009F000401D86B20A20B6FBF0F606F00108A6EB11
:100A00000800C0F34F074FF6FF7000EA0828022FD6
:100A100001DBFF2F02DD02274FF00008E08840EAEB
:100A2000080038432884A088A189084361880843C6
:100A30002188084340F4006040EA0909A5F81C90A9
:100A400005B0BDE8F08F0021018041808180C18028
:100A5000018141818181C18107210182704700218B
:100A6000018041808180C1800221816000218181DB
:100A7000704721B1028842F04002028004E00288FF
:100A80004FF6BF731A400280704721B1828B42F447
:100A90008062828304E0828B4FF6FF331A408283A8
:100AA000704730B5002400230C110125A540ABB2DE
:100AB0001AB185881D43858002E085889D43858025
:100AC00030BD1AB183880B43838002E083888B4357
:100AD00083807047818170470146888970474FF64F
:100AE000FF62914204D0028842F48072028004E0E6
:100AF00002884FF6FF631A400280704721B1828856
:100B000042F00402828004E082884FF6FB731A40B0
:100B10008280704702884FF2FF731A400280028879
:100B20000A4302807047018841F480510180704778
:100B300021B1028842F40052028004E002884DF69E
:100B4000FF731A400280704702460020012901D03D
:100B5000108B00E0908A70470146088A7047B1F513
:100B6000804F04D1028842F48042028004E002886F
:100B70004BF6FF731A40028070470246002013892B
:100B80000B400BB1012000E000207047CA430281F6
:100B90007047F0B50246002000240023002501F034
:100BA0000F070126BE40B4B20B1101269E40B3B21E
:100BB000968806EA03051689264016B10DB1012074
:100BC00000E00020F0BD10B5002201F00F04012369
:100BD000A3409AB2D343038110BD0000003001400E
:100BE00000380040003C004010B50446FB488442F9
:100BF00009D101218803FFF779FC00214FF48040DF
:100C0000FFF774FC32E0F648844209D10121480420
:100C1000FFF779FC00214FF40030FFF774FC25E06A
:100C2000F048844209D101218804FFF76CFC0021BF
:100C30004FF48020FFF767FC18E0EB48844209D1AD
:100C40000121C804FFF75FFC00214FF40020FFF7EB
:100C50005AFC0BE0E548844208D101210805FFF762
:100C600052FC00214FF48010FFF74DFC10BD2DE920
:100C7000F04786B005460E460024A24600BFA146B6
:100C80000027B08900B100BF2F462C8A4CF6FF70B8
:100C90000440F08804432C82AC894EF6F3100440E3
:100CA000B08831890843718908430443AC81AC8A18
:100CB0004FF6FF400440B0890443AC8201A8FFF71F
:100CC0008EFBC648874202D1DDF810A001E0DDF8B6
:100CD0000CA0A88900F4004040B10AEBCA0000EB68
:100CE0000A1031684900B0FBF1F807E00AEBCA00CE
:100CF00000EB0A1031688900B0FBF1F86420B8FB02
:100D0000F0F004012009642101FB1089A88900F496
:100D1000004040B1322000EBC900B0FBF1F000F020
:100D20000700044308E0322000EB09106421B0FB07
:100D3000F1F000F00F0004432C8106B0BDE8F0870D
:100D40004FF41651016000218180C18001810C2186
:100D5000418100218181704710B502460020108A30
:100D60004FF2FF0318400B884C8823438C882343A1
:100D7000CC8823431843108210BD0021018041809C
:100D80008180C180704721B1828942F40052828102
:100D900004E082894DF6FF731A4082817047F0B5F6
:100DA0000346002400260025002040F66A17B942B9
:100DB00000D100BF1846C1F3421401F01F060127FD
:100DC00007FA06F5012C01D10C3004E0022C01D108
:100DD000103000E014301AB107682F43076002E0BA
:100DE0000768AF430760F0BD1AB1838A0B43838263
:100DF00002E0838A8B4383827047028A4FF6F07346
:100E00001A400282028A0A430282704782894FF2A4
:100E1000FF731A40828182890A438281704721B11F
:100E2000828942F00202828104E082894FF6FD73DA
:100E30001A4082817047028A4FF6DF731A4002829D
:100E4000028A0A430282704721B1028A42F4804238
:100E5000028204E0028A4BF6FF731A400282704756
:100E6000C1F308028280704701468888C0F30800F9
:100E70007047818941F0010181817047028BD2B2B4
:100E80000283028B42EA012202837047028B02F442
:100E90007F420283028B0A430283704721B1828A18
:100EA00042F02002828204E0828A4FF6DF731A4009
:100EB0008282704721B1828A42F01002828204E06D
:100EC000828A4FF6EF731A408282704721B1828A7C
:100ED00042F00802828204E0828A4FF6F7731A40D9
:100EE0008282704721B1828942F40042828103E00C
:100EF0008289C2F30E028281704721B1828A42F454
:100F00000062828204E0828A4FF2FF731A4082827A
:100F10007047828A4FF6FB731A408282828A0A43A4
:100F20008282704721B1828A42F00202828204E00A
:100F3000828A4FF6FD731A40828270470246002073
:100F4000B1F5007F00D100BF13880B400BB1012029
:100F500000E00020704701F40072B2F5007F00D17C
:100F600000BFCA430280704770B5024600240023C8
:100F70000025002040F66A16B14200D100BFC1F33F
:100F8000421501F01F03012606FA03F3012D02D1D9
:100F90009689334006E0022D02D1168A334001E0E3
:100FA000968A33400C12012606FA04F4168834405F
:100FB00013B10CB1012000E0002070BD10B500227B
:100FC000002340F66A14A14200D100BF0A12012496
:100FD0009440A3B2DC43048010BD000000380140FF
:100FE0000044004000480040004C004000500040D9
:100FF0000CB50020019000906C48006840F48030EF
:101000006A49086000BF6948006800F40030009039
:101010000198401C0190009818B90198B0F5A06F94
:10102000F1D16248006800F4003010B10120009056
:1010300001E0002000900098012843D15C4800683E
:1010400040F010005A4908600846006820F003008C
:1010500008600846006840F0020008605348406895
:10106000524948600846406848600846406840F475
:10107000806048600846406820F47C10486008465C
:10108000406840F4E81048600846006840F080700E
:10109000086000BF4548006800F000700028F9D0E3
:1010A0004248406820F003004049486008464068D4
:1010B00040F00200486000BF3C48406800F00C006F
:1010C0000828F9D10CBD10B5FFF792FF10BD10B57F
:1010D0003648006840F0010034490860084640681E
:1010E00034490840314948600846006832490840A0
:1010F0002E4908600846006820F4802008600846F1
:10110000406820F4FE0048604FF41F008860FFF73D
:10111000DAFF4FF000602949086010BD10B50021CA
:1011200000200022214B5B6803F00C0121B104294F
:1011300006D0082928D107E0214B224C236027E064
:101140001F4B204C236023E0184B5B6803F47010A6
:10115000164B5B6803F48032022303EB904022B904
:10116000194B4343174C23600DE0104B5B6803F4AD
:10117000003323B1144B4343124C236003E0104B64
:101180004343104C236003E00D4B0E4C236000BF23
:1011900000BF064B5B68C3F303130C4CE15C094BC7
:1011A0001B68CB40074C236010BD000000100240BC
:1011B000002002400000FFF8FFFFF6FE08ED00E00F
:1011C00000127A001400002000093D0018000020E1
:1011D0000648804706480047FEE7FEE7FEE7FEE7D1
:1011E000FEE7FEE7FEE7FEE7FEE7FEE7CF100008BA
:1011F000ED000008704700BFFEE700BFFEE700BF3C
:10120000FEE700BFFEE77047704710B501F0FAFF38
:10121000044606480078401C04490870204601F046
:10122000F5FF00F056FD00F05BFC10BD4100002012
:1012300000BF0BE002214D48FFF7AFFA4FF4C8732F
:1012400000221146104601F02FFF00BFF2E730B533
:1012500085B06846FFF7C3F84FF47A720198B0FB87
:10126000F2F1B1F1807F00D31DE021F07F40401EFC
:101270004FF0E022506150170F22002807DA1307C1
:101280001D0E3B4B00F00F04241F1D5503E01307F8
:101290001C0E384B1C5400BF00204FF0E022906120
:1012A0000720106100BF02F0D9F9642002F0CAF9EA
:1012B0004FF4165002F017F94FF4A060FEF720FF2C
:1012C00002F0F4F9002002F02FFA02F0CDFB05B095
:1012D00030BDFFF7BCFF28A1294803F0EAFB29A194
:1012E0002748143003F0E5FB2849087803F075FA25
:1012F0002749087803F0FCFA03F043FA20E023487A
:10130000006802F060FB58B12049096840F24B12B6
:101310005143204A02EB410101F10C0003F087FA2E
:1013200003F0E3FA044603F00DFB02210F48FFF738
:1013300036FA4FF4967300221146104601F0B4FEBF
:10134000DDE710B5FFF7EAFE00F0A6FB0423124A22
:101350000021124801F058FB0623114A00211148D0
:1013600001F052FB00F07EFC002010BD000801409F
:1013700018ED00E000E400E0393633323538000083
:10138000264A002039363031000000007C00002061
:1013900084000020A63F002094100020D3120008F3
:1013A00094200020311200080246002005E011F8C8
:1013B000013B02F8013B431CD8B20B78002BF6D15D
:1013C000137070472DE9F04105460E46144600277C
:1013D000FC480078002804DD112020700020BDE8C2
:1013E000F0812878012808D0022807D0032802D0ED
:1013F000042804D100E000BF00BF00BF03E00120CB
:1014000020700020EBE700BF01F0FCFE074605F16D
:101410000F013046FFF7C8FF8046384601F0F6FE60
:10142000002020704046DAE70146002002E0491C17
:10143000421CD0B20A78002AF9D170472DE9F04158
:1014400005460F4614464FF00008DE480078002895
:1014500003DD12202070BDE8F0812878012808D033
:10146000022807D0032802D0042804D100E000BFDE
:1014700000BF00BF02E001202070ECE700BF01F0D8
:10148000C1FE80463846FFF7CFFF06460F2E05DD2A
:10149000404601F0BBFE0B202070DCE7394605F129
:1014A0000F00FFF781FF404601F0B0FE00202070E2
:1014B00000BFD0E7F0B5024612F8344F9578567861
:1014C000343A0B4618680FE000F10B073F5DB74355
:1014D00000F10B0C0CF8047067463F5D17B9877A72
:1014E000AF4387721B1D18680028EDD1F0BDB649C7
:1014F000B64A1278885CB649095CB34A515C01EB84
:10150000C001B44A1170704710B5002401F07AFE92
:101510000446AC480078F0B9AF480078D8B9FFF776
:10152000E6FFAC480078AD490978884213D0AC4852
:10153000A849097850F82100AA49086008460068BF
:10154000806B401C09688863A7480068401CA64956
:10155000086001F06EFE204601F058FE10BD70B527
:1015600001460024A14D2D68EC61A04C2468216245
:101570000B4618681BE09D4C246894F8345000F129
:101580000B04645D994D2D6895F835502C43974DAB
:101590002D6895F8346000F10B05AC55847A934DB5
:1015A0002D6895F836502C4384721B1D186800284E
:1015B000E1D18E4C246894F83420854CA45C8B4D8A
:1015C0002D6895F83550AC43814DAC542C46A45C45
:1015D00044B9864C246894F836507C4C2478AC434B
:1015E0007A4D2C7070BD2DE9FF4F83B080460E46BA
:1015F0001546109F002001903060C146D9F8004088
:1016000018E02078012807D0032804D0042805D04A
:10161000052802D103E008E007E000BF00BF012079
:101620003870002007B0BDE8F08F00BF09F1040951
:10163000D9F80040002CE4D162480078002803DD8E
:10164000022038700020EDE763480078002803DDB1
:101650000D2038700020E5E701F0D4FD0190002056
:10166000029082468346C146D9F800403DE020788A
:10167000012819D0032804D0042827D0052824D114
:1016800025E0208900280CDD2089401E208110C61D
:1016900001200290002001C50AF101001FFA80FA22
:1016A00001E04BF0010B1BE0606858B1606801C5B8
:1016B0000020606010C6012002900AF101001FFAAC
:1016C00080FA01E04BF0020B0AE000BF00BF019876
:1016D00001F09CFD00203060012038705046A1E7E9
:1016E00000BF09F10409D9F80040002CBFD10298CD
:1016F000012808D100203060019801F087FD00200A
:10170000387050468EE73948006890F830004BF04A
:10171000800108433549096881F8300000203349C9
:10172000096881F83100314906980968C885404642
:10173000FFF715FF019801F069FDFFF7E5FE01F0E5
:1017400061FD01902948006890F8310020B101281E
:101750001BD0022818D100E000BF24480068C469EB
:101760003CB110C6002030600AF101001FFA80FA77
:1017700009E001201D49096881F8310041461B48F4
:101780000068FFF797FE06E000BF41461748006873
:10179000FFF790FE00BF00BF1448006890F83100CA
:1017A00020B101283FD002283CD136E0207806281D
:1017B00024D2DFE800F0231D1E032425002001C5EC
:1017C00027E0000041000020DA4E0008450000201C
:1017D000460000204400002042000020430000207A
:1017E000643600205800002028000020500000200F
:1017F00000BFF7480068406A01C50AE000BF00BFAB
:10180000019801F003FD002030600120387050463F
:1018100008E700BF002038700AE0002001C50E2054
:10182000387005E000BF002001C50A20387000BFF5
:1018300000BF0020E649096881F83000E4490968E2
:1018400081F83100E2490968C861E1490968086224
:10185000DF4909684862019801F0D8FC5046E1E68A
:101860007CB5002514E06946284601F028FB0646B1
:1018700066B9D84850F8254044B1012C06D0D4E9C7
:10188000020100EB810060640198A064681CC5B28D
:101890001F2DE8DD7CBD002402E0C82001F0D4FB50
:1018A000CD4800780028F8D0CC4800686421B0FB0F
:1018B000F1F0CA4908600846006828B90020C84904
:1018C0000870FF2001F03DFB00BF01F09BFC0446C7
:1018D000C4480068C44908600020C2490860204626
:1018E00001F094FCC0480068BC490968B0FBF1F005
:1018F000C0F16400BA49087001F0DBFCFFF7B0FFEB
:10190000642001F0A1FBE0E700B587B003200021CF
:101910008022B64BCDE90132CDE903104FF6FE70BF
:101920001E23B34A0090AFF2910001F0C5F806AA59
:10193000B0A11E2001F034FA07B000BD002400BFA2
:1019400001F060FC0446A7480068401CA5490860F7
:10195000204601F05BFC01F0ABFCF1E700B587B07D
:10196000032000218022A74BCDE90132CDE90310ED
:101970004FF6FF701F23A44A0090AFF23F0001F022
:101980009BF806AAA1A11F2001F00AFA07B000BD2A
:1019900004E0002200F8012B4A1E91B20029F8DC75
:1019A000704730B54FF4A0719C48FFF7F1FF9B4B97
:1019B00003F1200500240AE0002018705D603F203C
:1019C000D8730021197420332035601C84B2092C8F
:1019D000F2DB0020187058603F20D8730021197482
:1019E0008E488F49086030BD30B54FF4FD618D4899
:1019F000FFF7CEFF80217748FFF7CAFF894B03F13D
:101A00005C0500240AE05D613F2083F84C00002162
:101A10004D20C1545C335C35601CC4B2152CF2D32C
:101A2000002058613F2083F84C0000214D20C15414
:101A300000207D4908607B487C49086030BD002259
:101A40007B4B1A707B49002004E0002201F8012B37
:101A5000421CD0B20428F8DB0022774B1A70774B77
:101A60001A70774B1A605A4B1A60704700207549FC
:101A7000086075490870754908707549087075499E
:101A8000087075490860574908605749086053490C
:101A9000086051490870704710B501F005FCFFF768
:101AA000E5FFFFF7CCFFFFF79FFFFFF77AFF00F09E
:101AB000BDFEFFF753FFFFF727FF01F0F6FB01F034
:101AC0005DFC10BD63480078012808D15E480078AD
:101AD000FF2804D25C480078401C5B4908707047BE
:101AE00010B500245B480078012830D101F08AFB52
:101AF000044655480078002804DD53480078401E0D
:101B00005149087050480078F0B950480078D8B969
:101B1000FFF7EDFC4948007847490978884213D01F
:101B20002C484649097850F8210045490860084684
:101B30000068806B401C0968886347480068401C47
:101B40004549086001F07AFB204601F05FFB10BDBB
:101B500010B500243F480078012811D101F052FB54
:101B600004463948007840B938480078FF2804D244
:101B700036480078401C35490870204601F046FB85
:101B800010BD10B5002433480078012869D101F058
:101B900039FB04462D48007800285FDD2B4800788B
:101BA000401E2A4908700846007860B92648007827
:101BB00028B9204601F02AFBFFF7A6FC51E0204699
:101BC00001F024FB4DE0204601F020FB49E045E018
:101BD0005000002064360020400000203800002023
:101BE000340000204C0000203C0000206432002023
:101BF0006034002075432F4F532D494920537461A1
:101C000074000000643400206036002075432F4FBC
:101C1000532D49492049646C65000000983000202C
:101C20002C000020E43600205C000020540000203E
:101C30004500002046000020430000204400002012
:101C400058000020640000204100002042000020D5
:101C50004B0000204A00002028000020204601F010
:101C6000D5FA10BD10B5E648007890B9FFF73FFCF3
:101C7000E4480078E4490870E448E249097850F8FB
:101C80002100E349086008460068E249086001F065
:101C9000C0FA10BD10B50024022001F0D5F901F002
:101CA000B1FA04460020DC490860204601F0AEFA93
:101CB000642001F0C9F901F0A5FA0446D64800688D
:101CC000D64908600120D6490870204601F09EFAE6
:101CD00010BD70B5002601F03CFB01F093FA0646FA
:101CE000D0480068401CCF490860304601F08EFAA9
:101CF000C3480078012853D1CB48007820B101288F
:101D000004D0022809D103E001250BE0002509E0F9
:101D100001250120C449087004E001250020C249C2
:101D2000087000BF00BF05B970BDC048046833E04B
:101D300001F068FA0646E08D50B3E08D401E80B297
:101D4000E08528BB94F8300000F0370040B114F86B
:101D5000300F20F03700207001206070303C02E02E
:101D6000002084F8310094F8300000F0080078B9C1
:101D70003434A078AE4909780843AD49087020781A
:101D8000AC49085C6178084314F83419A94A5054E6
:101D90006469304601F03AFA94F832001F28C7D13E
:101DA00000BFC1E74FF48F707047704710B590F8CF
:101DB000342001F10B039B5C90F83540A34301F103
:101DC0000B04A35423469B5C23B98B7A90F83640CE
:101DD000A3438B7210BD2DE9F04F05460F46904688
:101DE0009946A87A94490E5C05F10B00805D11F8C4
:101DF00000B00BEBC60000F0FF0A844850F82A4000
:101E00000020243460812760207B20EA08002073B2
:101E100084F80D90207B243C00F0080068B994F809
:101E20003600834909780843814908708148805DFC
:101E300094F8351008437F49885529462046FFF716
:101E4000B5FF206A20B12046216AFFF733FBE56128
:101E50005046BDE8F08F10B56E4A1268D0616D4AE9
:101E6000126892F8343000F10B02D25C694B1B68A7
:101E700093F835301A43674B1B6893F8344000F1F0
:101E80000B031A55827A634B1B6893F836301A435A
:101E90008272604A126892F83410664A525C5D4B56
:101EA0001B6893F835309A43624B5A541A46525C79
:101EB00042B9584A126892F836305D4A12789A430D
:101EC0005B4B1A7010BD0023837200F10B010022DE
:101ED00004E0002301F8013B531CDAB2042AF8DBCA
:101EE000704705E011F8013B00F8013B531E9AB220
:101EF000002AF7DC70472DE9F84F05460E461746D5
:101F00009846DDE90BABDDF828900020009001F049
:101F100079F9009049480468002C6BD0183454F8C3
:101F2000040C46490860009801F070F944F8186CF8
:101F3000A576002020766076E08244F814AC44F860
:101F40000C9C44F8107C24F808BC24F8068CE0773C
:101F5000E810207705F00700E076217F0120884017
:101F6000A077E17E01208840607700206060A0605B
:101F70002061E0602062A0626062E06220633F2036
:101F800084F83400183C00214D200155204601F012
:101F9000DFF9204601F08AF901F034F900901B487E
:101FA00040F825402148006860610020A0611F487A
:101FB000006810B11D48006884611C480460343416
:101FC000A0781B49097808431949087020781949F5
:101FD000085C6178084314F83419164A50541848BC
:101FE0000078401C16490870009801F00FF9002095
:101FF000BDE8F88F009801F009F94220F8E70000E9
:102000004A000020440000204300002064360020E5
:1020100058000020500000204C0000203800002014
:102020004000002064000020600000205C000020D0
:102030004500002046000020DA4E00085400002031
:102040004B0000202DE9F05F04460F4691461E46E6
:102050004FF0000B2078052804D0012030700020BC
:10206000BDE8F09F09F0800ABAF1000F04D029F012
:1020700080094FF0010801E04FF0000800203070A7
:1020800001F0C0F88346B9F1000F2CD0B9F1010F6F
:102090003BD0B9F1020F03D0B9F1030F46D111E0E3
:1020A000208900EA0705BD4206D1B8F1010F05D12C
:1020B0002089A843208101E070203070584601F04B
:1020C000A5F83AE0208900EA070535B1B8F1010F1B
:1020D00005D12089A843208101E070203070584646
:1020E00001F094F829E0208927EA0005BD4206D1D5
:1020F000B8F1010F05D120892843208101E070202B
:102100003070584601F082F817E0208927EA000570
:1021100035B1B8F1010F05D120892843208101E0B4
:1021200070203070584601F071F806E0584601F012
:102130006DF800256F20307000BF00BF28468FE784
:102140002DE9F04106460D460027F84800780028A2
:1021500004DD102028700020BDE8F08101F052F865
:102160000746F348046894B100684068F049086085
:10217000052020702681002060603F20A072002191
:10218000E172384601F042F80020287004E0384639
:1021900001F03CF8722028702046DDE730B501469A
:1021A0004A6808682AB9CC68606028B10025456093
:1021B00002E0106000B142608B6800259D6230BD76
:1021C000F0B506460F46B46800202C3460802780A6
:1021D000207920F0200020710020607120792C3CB3
:1021E00088B93434A078D34909780843D1490870B4
:1021F0002078D149085C6178084314F83419CE4A34
:102200005054012500E000253046FFF7C7FF28465F
:10221000F0BD2DE9F0470446894615464FF0000A07
:10222000C2480078002804DD0F2028702046BDE851
:10223000F0872078052803D0012028702046F6E793
:1022400000F0E0FF8246606808B1012700E0002747
:10225000B9F1000F03D0B9F1010F40D11BE09FB9D4
:102260003F20A0720021E17200202070B048006879
:10227000606000202081AE480460504600F0C6FF38
:1022800000202870002605E0504600F0BFFF4920DE
:10229000287026462AE0D4F8048005E00021404654
:1022A000FFF78EFFD8F80080B8F1000FF6D13F207D
:1022B000A0720021E172002020709D4800686060DB
:1022C000002020819A480460504600F09FFF012FB3
:1022D00001D1FFF719F900202870002606E05046CA
:1022E00000F094FF07202870264600BF00BF30464C
:1022F0009DE72DE9F04105460E46144600278B4820
:102300000078002804DD112020700020BDE8F08155
:1023100000F078FF07462878052806D0384600F0F8
:1023200075FF012020700020F0E705F10A0130461A
:10233000FFF73AF88046384600F068FF002020702A
:102340004046E3E72DE9F04105460F4614464FF0BD
:10235000000876480078002803DD12202070BDE8D0
:10236000F08100F04FFF80462878052805D04046D0
:1023700000F04CFF01202070F1E73846FFF754F8D9
:1023800006460F2E05DD404600F040FF732020700A
:10239000E5E7394605F10A00FFF706F8404600F088
:1023A00035FF0020207000BFD9E7F0B51446059E28
:1023B000624F3F6897F8307047F02007DFF87CC124
:1023C000DCF800C08CF830700027DFF870C1DCF852
:1023D00000C08CF83170594F3F68FE85574F3F68F9
:1023E000B9620C828B74554F3F688F6047680F60ED
:1023F00000274F60C860456805B1696041604F4F74
:102400003F6897F834204C4FBF5CDFF830C1DCF8F0
:1024100000C09CF835C027EA0C07DFF81CC10CF897
:1024200002706746BF5C5FB9444F3F6897F836C09B
:10243000404F3F7827EA0C07DFF8F8C08CF80070AF
:10244000F0BD2DE9F04F89B005460F4691469A46FA
:10245000129E0020029035480078002805DD0220F9
:102460003070002009B0BDE8F08F354800780028B2
:1024700003DD0D2030700020F4E72878052803D014
:10248000012030700020EDE709F0800BBBF1000F58
:1024900004D029F080094FF0010801E04FF0000856
:1024A00000F0B0FE0290B9F1000F57D0B9F1010F62
:1024B00077D0B9F1020F03D0B9F1030F70D120E04A
:1024C000288900EA0704BC420FD1B8F1010F02D1FC
:1024D0002889A0432881194800688485029800F063
:1024E00095FE002030702046BCE74B463A4604A9D2
:1024F0002846CDF800A0FFF758FF029800F086FEAE
:1025000077E0288900EA0704E4B1B8F1010F02D1AD
:102510002889A0432881094800688485029800F032
:1025200075FE0020307020469CE70000410000202E
:102530003000002045000020460000205000002010
:10254000420000204B463A4604A92846CDF800A098
:10255000FFF72BFF029800F059FE4AE0288927EA8E
:102560000004BC420FD1B8F1010F02D128892043E9
:102570002881BF4800688485029800F047FE00204B
:10258000307020466EE74B463A4604A92846CDF8FF
:1025900000A0FFF70AFF029800F038FE29E000E0F3
:1025A0001FE0288927EA00047CB1B8F1010F02D1AD
:1025B000288920432881AE4800688485029800F06D
:1025C00025FE0020307020464CE74B463A4604A9D1
:1025D0002846CDF800A0FFF7E8FE029800F016FEAE
:1025E00007E0029800F012FE00246F2030702046B1
:1025F00038E700BFFEF788FF00F004FE02909C4819
:10260000006890F8310020B39948006890F83100D4
:10261000039000209649096881F8310004A8FFF76B
:10262000BDFD00209249096881F83000029800F051
:10263000EDFD00240398012805D0022802D10E20C8
:10264000307003E000BF0A20307000BF00BF20469A
:1026500008E787480068848DB8F1010F1ED1B9F1F1
:10266000000F0ED0B9F1010F0CD0B9F1020F03D059
:10267000B9F1030F0AD100E000BF2889A0432881E7
:102680000BE000BF28892043288106E0029800F073
:10269000BDFD6F2030700020E4E600BF029800F01E
:1026A000B5FD002030702046DCE670B5002500F056
:1026B000A9FD05466E480068848D284600F0A6FDF9
:1026C000204670BD2DE9FC5F0446894692461E46B1
:1026D000002000902078052804D0012030700020D0
:1026E000BDE8FC9F00F08EFD0090BAF1000F03D012
:1026F000BAF1010F0AD104E0208920EA0900208103
:102700000BE0208940EA0900208106E0009800F0F3
:102710007DFD712030700020E2E700BF4FF0000B1C
:10272000656855E0A87C40B3012838D0022802D063
:10273000032844D111E02089298A00EA0107288A68
:10274000B84209D139462846FFF73AFD8046B8F12C
:10275000010F01D14FF0010B38E02089298A00EAEE
:1027600001074FB139462846FFF72AFD8046B8F1E8
:10277000010F01D14FF0010B28E0288A218920EABE
:102780000107288AB84209D139462846FFF718FDC3
:102790008046B8F1010F01D14FF0010B16E0288AF5
:1027A000218920EA01074FB139462846FFF708FD85
:1027B0008046B8F1010F01D14FF0010B06E00098FF
:1027C00000F024FD6F203070002089E700BF2D68E5
:1027D000002DA7D1009800F019FDBBF1010F01D128
:1027E000FEF792FE00F00EFD009020890190009807
:1027F00000F00CFD00203070019871E72DE9F041E8
:1028000004460D4600272078052804D001202870B2
:102810000020BDE8F08100F0F5FC07462689384627
:1028200000F0F4FC002028703046F2E770B58C21EF
:102830001048FFF7ADF80F4C04F11C0600250AE024
:102840000020207066603F20A0720021E1721C34DD
:102850001C36681C85B2042DF2DB002020706060FD
:102860003F20A0720021E17202480349086070BD58
:1028700050000020D8310020300000202DE9F34F17
:1028800085B088460020019000F0BCFC0190F7481C
:1028900050F8280030B1019800F0B8FC282007B0AB
:1028A000BDE8F08F0598FF2804D1F148006890F842
:1028B00032000590ED49059851F8205025B901984E
:1028C00000F0A4FC2920EAE7012D04D1019800F0D2
:1028D0009DFC4320E3E74FEAE80708F00700039078
:1028E0000120B84000F0FF0901210398814001F068
:1028F000FF0A0021DD4A059842F82010104640F8F2
:10290000285095F8346095F83600029095F835B067
:10291000D848805D00EA0B00D0B1D648805D20EA3F
:102920000B00D44988550846805D28B9D248007804
:1029300002998843D0490870CF48007840EA0900DE
:10294000CD490870CB48C05D40EA0A00C949C85566
:10295000EC69D4B104F10B00805D20EA0B0004F1B6
:102960000B0188550846805D18B9A07A0299884302
:10297000A072A07A40EA0900A07204F10B00C05DC9
:1029800040EA0A0004F10B01C855286A30B3286AEE
:102990000490049804681FE004F10B00805D20EAB5
:1029A0000B0004F10B0188550846805D18B9A07A28
:1029B00002998843A072A07A40EA0900A07204F14B
:1029C0000B00C05D40EA0A0004F10B01C8550498F1
:1029D000001D049004980468002CDDD185F8328035
:1029E00085F83470039885F8330085F8369085F8BB
:1029F00035A0019800F00AFCA0480078012801D118
:102A0000FEF782FD00204AE72DE9FE4F06460F46FD
:102A100090461C464FF0000900F0F4FB81469848B0
:102A20000078002805DD484600F0F0FB3C20BDE8BA
:102A3000FE8F8E4850F8240060BB01208B4941F87E
:102A40002400484600F0E2FB002342463946304667
:102A500000F030FC824600200090019003460246C0
:102A6000514602902046FFF746FA054635B983489D
:102A7000007801280CD1FEF747FD09E000F0C2FB09
:102A800081460020794941F82400484600F0BEFB09
:102A90002846CCE7484600F0B9FB2820C7E702F0FB
:102AA000010343B102F002032BB102E0491E0023EF
:102AB00008C00029FAD170472DE9F04F85B0814652
:102AC0008A4693461C46DDE90F78129D002003904C
:102AD00000F098FB03906A480078002806DD039810
:102AE00000F094FB3C2005B0BDE8F08F5F4850F843
:102AF000240088BB01205D4941F82400039800F0C0
:102B000085FB2A4641463846FFF7C9FF2B465A4601
:102B10005146484600F0CEFB04901198CDE9008064
:102B200002953A4620460E9B0499FFF7E4F90646C3
:102B300036B95248007801280CD1FEF7E5FC09E0CF
:102B400000F060FB03900020484941F824000398FE
:102B500000F05CFB3046C6E7FFE7039800F056FB49
:102B60002820C0E72DE9F0410546002744480078B9
:102B7000002802DD4020BDE8F0811F2D01D13E205C
:102B8000F9E700F03FFB0746FF2D03D13848006806
:102B900090F83250354850F8254024B9384600F0B6
:102BA00035FB4320E7E7012C04D1384600F02EFB2B
:102BB0003D20E0E714F8340F2E49085C6178884323
:102BC00021782C4A505414F834091146085C30B965
:102BD00094F8361028480078884327490870E0693F
:102BE00018B12046E169FFF7E1F8206A18B12046E4
:102BF000216AFEF75FFCA66A16B13046FFF7CEFAEF
:102C00000020E08584F8300084F831001D48007809
:102C1000FF2804D21B480078401C1A490870384627
:102C200000F0F4FAFFF7C1F800F0ECFA0746154897
:102C30000078002804DD13480078401E1149087010
:102C4000204600F034FB10480078401E0E49087002
:102C50000020064941F82500A069C8B90020616933
:102C600088610A496069086018E000006436002045
:102C70005000002046000020450000204A000020AF
:102C800041000020420000204B0000205C0000209A
:102C9000D4E905014861D4E905108861E34800687A
:102CA0006061E24804603F2084F84C0000214D2020
:102CB0000155384600F0AAFADD480078012801D114
:102CC000FEF722FC002056E72DE9F04104460027DC
:102CD0001F2C02D13E20BDE8F081FF2C0BD100F06B
:102CE00091FA0746D348006890F83760384600F0FC
:102CF0008DFA3046EFE700F085FA0746CE4850F8E7
:102D0000245025B9384600F081FA4320E3E7012D2D
:102D100004D1384600F07AFA3D20DCE73F2085F800
:102D20003700384600F072FA0020D4E72DE9F0476A
:102D300006460F4614464FF00008C04800780028A9
:102D400004DD112020700020BDE8F08700F05AFA61
:102D50008046FF2E03D1B748006890F83260B6482D
:102D600050F8265035B9404600F050FA4320207004
:102D70000020E9E7012D06D1404600F047FA432044
:102D800020700020E0E705F14C013846FEF70CFB0F
:102D90008146404600F03AFA002020704846D3E7CA
:102DA0002DE9F0470646884614464FF00009A3482F
:102DB0000078002803DD12202070BDE8F08700F0C5
:102DC00021FA8146FF2E03D19A48006890F83260BC
:102DD000994850F826502DB9484600F017FA43207C
:102DE0002070EAE7012D05D1484600F00FFA432094
:102DF0002070E2E74046FEF717FB07460F2F05DD80
:102E0000484600F003FA41202070D6E7414605F11C
:102E10004C00FEF7C9FA484600F0F8F9002020708F
:102E200000BFCAE770B50546002600F0EBF906467C
:102E3000814850F8254024B9304600F0E7F9462093
:102E400070BD012C04D1304600F0E0F94320F7E7D3
:102E500094F8300000F0080060B314F8300F20F050
:102E60000800207014F83009F8B9E08DC8B934347E
:102E7000A07873490978084371490870207871492E
:102E8000085C6178084314F834196E4A505430468F
:102E900000F0BCF966480078012809D1FEF734FB40
:102EA00006E0304600F0B2F902E0304600F0AEF93C
:102EB0000020C5E7304600F0A9F94420C0E72DE91D
:102EC000F04707460D464FF0000A00202860686072
:102ED00000F098F98246FF2F03D15648006890F819
:102EE0003270554850F827402CB9504600F08EF902
:102EF0004320BDE8F087012C04D1504600F086F94C
:102F00004320F6E7207C00F0010020B9504600F095
:102F10007DF94520EDE70026D4F80C90D4F8088020
:102F2000504600F073F900E0761C58F8041B0029A5
:102F3000FAD0B0002860A9EB06008000686000208D
:102F4000D7E72DE9F04105464FF0000800F05AF9A7
:102F50008046FF2D05D13748006890F83250012691
:102F600008E03448006890F83200A84201D10126F8
:102F700000E00026304850F825402CB9404600F0CB
:102F800045F94820BDE8F081012C04D1404600F00D
:102F90003DF94320F6E794F834702A48C05D94F870
:102FA000351088432749C8550846C05D30B994F8A4
:102FB00036102348007888432149087094F830007F
:102FC00040F0080084F83000404600F01FF9012E60
:102FD00001D1FEF799FA0020D4E72DE9F04105462A
:102FE0000E46002700F00EF90746FF2D03D11148C9
:102FF000006890F83250104850F825402CB93846F7
:1030000000F004F92920BDE8F081012C04D13846F4
:1030100000F0FCF84320F6E75C2221463046FEF73C
:1030200060FF384600F0F2F80020ECE75400002082
:103030004A0000205000002064360020410000209B
:10304000450000204600002070B505460026674870
:103050000078002800DD70BD002D23DD00F0D2F8DF
:1030600006466348006890F834406248005D604955
:10307000096891F8351088435E4908550846005D97
:1030800040B95B48006890F836105B480078884388
:103090005949087056480068C585304600F0B6F8B2
:1030A000FEF732FA00BFD6E72DE9F047074688461B
:1030B00091461D464D480078002802DD5520BDE8A8
:1030C000F0874FF47A7068434FF47A71B0FBF1F1F6
:1030D0004FF461607843C8EB081200EB820048446B
:1030E00000EB4002C2EBC01001EBC004260CA4B2FE
:1030F0002046FFF7A9FF09E04FF40040FFF7A4FFC7
:103100004FF40040FFF7A0FF701E86B2002EF3DCE4
:103110000020D4E770B5054600261F2D01DB2A20CC
:1031200070BD00F06FF80646344850F8254024B9C9
:10313000304600F06BF84320F2E7012C04D1304612
:1031400000F064F84320EBE7E08D20B9304600F052
:103150005DF85020E4E70020E08594F8300000F0AE
:10316000370040B114F8300F20F0370020700120F4
:103170006070303C02E0002084F8310094F83000A8
:1031800000F00800A8B93434A0781B490978084336
:103190001949087020781749085C6178084314F8C9
:1031A0003419144A5054304600F030F8FEF7ACF9A8
:1031B00002E0304600F02AF80020B1E770B50025A3
:1031C00000F020F805460E480468284600F01EF876
:1031D000204670BD70B50446002500F013F8054682
:1031E00007480460284600F011F870BD4100002037
:1031F00050000020460000204500002064360020DA
:1032000064000020EFF3108072B6704780F31088DE
:1032100070471D484FF0FF010170002080F30988BE
:103220001A48012101701A484FF08051016062B6BE
:10323000FEE717484FF080510160704714484FF087
:1032400080510160704772B6EFF3098028B12038D1
:1032500080E8F00F0F490968086000B50E48804704
:103260005DF804EB0D480E490A78027009480D49D3
:103270000A680260106890E8F00F203080F3098837
:103280004EF0040E62B6704722ED00E04A000020C6
:1032900004ED00E0500000204F3300084300002000
:1032A0004400002058000020704770477047704766
:1032B0007047704770B5044610464FF08075056042
:1032C000051F28462C606FF00106051F28462E605A
:1032D0004FF01236051F28462E604FF00336051FAB
:1032E00028462E604FF00236051F28462E607610C5
:1032F000051F28462E60051F284629604FF011360D
:10330000051F28462E604FF01036051F28462E60F8
:103310004FF00936051F28462E604FF00836051F6E
:1033200028462E604FF00736051F28462E604FF0C6
:103330000636051F28462E604FF00536051F284625
:103340002E604FF00436051F28462E6070BD704772
:103350007047704710B5FFF755FF044606480078E0
:10336000401C054908702046FFF750FFFEF7B1FCEE
:10337000FEF7B6FB10BD00004100002017481848BA
:103380001848194819481A481A481B481B481C482D
:103390001C481D481D481E481E481F481F482048FD
:1033A00020482148214822482248234823482448CD
:1033B000244825482548264826482748274828489D
:1033C0002848294829482A482A482B482B482C486D
:1033D0002C482D482D4800BF70470000DC4F0008E6
:1033E000E04F0008E44F0008E64F0008E84F0008EF
:1033F000EA4F0008EC4F0008EE4F0008F04F0008BD
:10340000F24F0008F44F0008F64F0008F84F00088C
:10341000FA4F0008FC4F0008FE4F0008005000085B
:103420000250000804500008065000080850000828
:103430000A5000080C5000080E50000810500008F8
:1034400012500008145000081650000818500008C8
:103450001A5000081C5000081E5000082050000898
:103460002250000824500008265000082850000868
:103470002A5000082C5000082E5000083050000838
:103480003250000834500008365000083850000808
:10349000014600BF704770B504460D4600BF40218D
:1034A0005C48FDF74BFD0028F9D0E1B25948FDF723
:1034B000D7FC204670BD70B50546284601F0E4FAF9
:1034C0000646002400BF0BE000BF40215148FDF735
:1034D00035FD0028F9D0295D4E48FDF7C1FC641C7C
:1034E000B442F1DB70BD10B586B00446012144F250
:1034F0000400FCF7E1FF4748FDF776FB4FF400704E
:10350000ADF8140003208DF8160018208DF8170070
:1035100005A94148FDF794F84FF48060ADF8140018
:1035200004208DF8170005A93B48FDF789F80194A0
:103530000020ADF80800ADF80A00ADF80C00ADF8B9
:1035400010000C20ADF80E0001A93248FDF78FFBEA
:1035500025208DF8000003208DF801008DF8020071
:1035600001208DF803006846FCF7CFFD012240F2F0
:1035700025512848FDF713FC01212648FDF703FCDF
:1035800006B010BD10B540F225512248FDF7ECFC05
:1035900000283ED01F48FDF767FCC4B21F480088D2
:1035A00000F4004018BB1D48008800F48040B0B112
:1035B0000A2C03D00020194908802AE01748008807
:1035C00040F4004015490880154916A001F06CFB35
:1035D00001201549086000201049088019E00D2CD1
:1035E00006D10E48008840F480400C49088010E065
:1035F0000A480088C0F30D0009490C5407480088A8
:10360000401C0649088008460088C72801DD0020C4
:10361000088010BD00380140000801406C00002007
:10362000CC3E00202573000070000020704710B5CC
:1036300004460020FFF7CEFD00BFFFF7BFFD0028C6
:10364000FBD010BD10B504460020FFF7C3FD00BF3E
:10365000FFF7B4FDA042FBD310BD000008B5012167
:103660000420FCF729FF0220ADF8000010208DF89F
:10367000030003208DF8020069460B48FCF7E0FFC9
:1036800002210948FDF789F808BD10B50446012C50
:1036900004D102210448FDF782F804E01CB902219C
:1036A0000148FDF77AF810BD0008014000B587B069
:1036B000012141F20500FCF7FFFEE020ADF8180003
:1036C00018208DF81B0003208DF81A0006A9334836
:1036D000FCF7B6FFE0213148FDF75FF80020ADF8B8
:1036E00004004FF48270ADF806000020ADF8080029
:1036F0000220ADF80A000120ADF80C004002ADF840
:103700000E003820ADF810000020ADF812000720A0
:10371000ADF8140001A92248FDF706F9012120485F
:10372000FDF7A7F907B000BD10B504461C48008896
:103730004FF6C77108401A490880084600882043A0
:10374000088001211648FDF794F910BD70B50546B3
:10375000002405E0601CC4B2C82C01DD002070BD4F
:1037600002210F48FDF709FA0028F3D029460C483A
:10377000FDF7B0F9002405E0601CC4B2C82C01DDDF
:103780000020ECE701210648FDF7F7F90028F3D007
:103790000348FDF7A1F9C0B2E1E7000000080140CD
:1037A0000030014010B504462146FE48FDF792F96D
:1037B00000BF0221FB48FDF7E0F90028F9D010BD59
:1037C00070B504462546E11704EB1161C1F30720EB
:1037D000FFF7E8FFE0B2FFF7E5FF70BD70B5044604
:1037E0000D4616460121F048FCF7D9FF2846FFF7A1
:1037F000E7FF082101EB4411C9B241F00500FFF7D2
:10380000D1FF3046FFF7CEFF0121E748FCF7C5FFA7
:1038100070BD70B504460D4616460121E248FCF71E
:10382000BEFF2846FFF7CCFF082101EB4411C9B2C7
:1038300041F00600FFF7B6FF3046FFF7C1FF012158
:10384000D948FCF7AAFF70BD70B505460E460121A8
:10385000D548FCF7A4FF3046FFF7B2FF082101EB83
:103860004511C9B241F00200FFF79CFFCD48FDF7BA
:1038700033F904460020FFF795FFCA48FDF72CF9FD
:1038800004460020FFF78EFF4FF6FF7000EA042485
:10389000C448FDF721F9204484B20121C248FCF755
:1038A0007CFF204670BD2DE9F04780460D4626215D
:1038B0004046FFF7C9FF064616B90020BDE8F0876D
:1038C00040F2B450864200DD064628214046FFF70C
:1038D000BBFF0746B946C7F30A070121B248FCF708
:1038E0005EFF3846FFF76CFF182101EB4811C8B2A4
:1038F000FFF758FFAB48FDF7EFF800F0FF0AB819E3
:10390000B0F5006F11DA00240CE00020FFF74AFF49
:10391000A448FDF7E1F800F0FF0A85F800A06D1C4F
:10392000601C84B2B442F0DB39E0C7F5006087B2B6
:1039300000240CE00020FFF735FF9A48FDF7CCF893
:1039400000F0FF0A85F800A06D1C601C84B2BC4228
:10395000F0DB01219448FCF720FF01219248FCF79D
:103960001EFF0020FFF72CFF182101EB4811C8B201
:10397000FFF718FF8B48FDF7AFF800F0FF0A0CE0E7
:103980000020FFF70FFF8748FDF7A6F800F0FF0AB9
:1039900085F800A06D1C601C84B2B442F0DB0121EC
:1039A0008148FCF7FAFE09EB06001FFA80F94A4647
:1039B00028214046FFF72DFF402201214046FFF716
:1039C0000DFF30467AE710B5044640F24B126243D1
:1039D000764B03EB420202F10C01E0B2FFF763FF0A
:1039E00050B140F24B116143704A02EB410101F1C9
:1039F0000C0001F049F810BD0020FCE71CB504469E
:103A00006B48407C6A49097CCDE900106848C37B5B
:103A1000827B68A16A4801F057F9694969A001F001
:103A200043F940F24B106043604901EB400080785D
:103A300040F24B1161435D4A02EB41014978CDE907
:103A4000001040F24B106043114601EB4000037A36
:103A500040F24B10604301EB4000C27955A1584839
:103A600001F032F956481CBD08B501210846FCF7A3
:103A700023FD01210420FCF71FFD0420ADF8000008
:103A800001208DF8020010208DF803006946464899
:103A9000FCF7D6FD04214448FCF781FE0120ADF877
:103AA000000003208DF8020010208DF80300694605
:103AB0003D48FCF7C5FD01213B48FCF76EFE08BD03
:103AC00070B505460C4601213748FCF768FE2846CC
:103AD000FFF776FE0520FFF765FE2046FFF762FE42
:103AE00001213148FCF759FE70BD70B505460C4602
:103AF00001212D48FCF753FE2846FFF761FE062002
:103B0000FFF750FE2046FFF75BFE01212648FCF739
:103B100044FE70BD2DE9F04107460C4615460121D3
:103B20002148FCF73CFE3846FFF74AFE0420FFF729
:103B300039FE002605E014F8010BFFF733FE701C78
:103B400086B2AE42F7DB01211748FCF726FEBDE83E
:103B5000F08170B505460E46144601211248FCF767
:103B60001EFE3046FFF72CFE082101EB4511C9B2BD
:103B700041F00700FFF716FE14F8010BFFF712FEE5
:103B800014F8010BFFF70EFE14F8010BFFF70AFE05
:103B900014F8010BFFF706FE01210348FCF7FDFDB9
:103BA00070BD00000030014000080140A63F002029
:103BB000943F002025642E25642E25642E25640064
:103BC000FE49002025730D0A0000000070B5044670
:103BD0000121F748FCF7E3FD2046FFF7F1FD012046
:103BE000FFF7E0FDF348FCF777FFC5B20020FFF7D1
:103BF000D9FDF048FCF770FFC5B20121EC48FCF795
:103C0000CCFD284670BD70B504460D460121E8483C
:103C1000FCF7C5FD2846FFF7D3FD082101EB441151
:103C2000C9B241F00100FFF7BDFDE248FCF754FFC7
:103C3000C6B20020FFF7B6FDDE48FCF74DFFC6B266
:103C40000121DB48FCF7A9FD304670BD2DE9F047A6
:103C500007460D46904600213846FFF7D4FF00F096
:103C60000F0022280ED0D44A0C213846FFF771FFEE
:103C7000D2484178007801EB002082B2102138460A
:103C8000FFF7C7FD24213846FFF7DEFD0646B146A3
:103C9000C6F30A060121C648FCF781FD3046FFF74E
:103CA0008FFD102101EB4711C9B241F00400FFF76D
:103CB00079FD06EB0800B0F5006F0ADA002405E094
:103CC00015F8010BFFF76EFD601C84B24445F7DB6D
:103CD00028E0C6F5006086B2002405E015F8010B67
:103CE000FFF760FD601C84B2B442F7DB0121B048ED
:103CF000FCF753FD0121AE48FCF751FD0020FFF712
:103D00005FFD102101EB4711C9B241F00400FFF73C
:103D100049FD05E015F8010BFFF744FD601C84B276
:103D20004445F7DB0121A248FCF737FD09EB080009
:103D30001FFA80F94A4624213846FFF76AFD2022FF
:103D400001213846FFF74AFDBDE8F08710B5042190
:103D50009748FCF724FD3220FFF774FC04219448B7
:103D6000FCF71BFDC820FFF76DFC00BF2E20FFF7FE
:103D70002DFF00F001000028F8D010BD10B5002480
:103D800080210020FFF79CFE0A20FFF75BFC042245
:103D90008B490120FFF7BEFE04228949091D052039
:103DA000FFF7B8FE0622864908310920FFF7B2FE68
:103DB000042283490E310F20FFF7ACFE00BF0BE059
:103DC00002221E212046FFF709FD02221F21204664
:103DD000FFF704FD601CC4B2082CF1DB4FF4FA615C
:103DE0001920FFF782FE08211B20FFF769FE10BD96
:103DF00038B505467248807B401CC0B28DF8000083
:103E00006F48C07B401CC0B28DF801006C48007C3C
:103E1000401CC0B28DF802006948407C401CC0B212
:103E20008DF803006A460C212846FFF792FE012216
:103E300000212846FFF7D2FC012211462846FFF751
:103E4000CDFC0520FFF7FEFB03212846FFF7DBFE34
:103E5000132806D0102201212846FFF7BFFC0020BE
:103E600038BD042201212846FFF7B8FC00BF00241A
:103E700002212846FFF7C7FE044624B1224602214C
:103E80002846FFF7ABFC0520FFF7DCFB04F0080039
:103E9000082801D10020E3E706212846FFF7B3FEFA
:103EA000FF2806D0102201212846FFF797FCFF20AB
:103EB000D6E7DCE710B5044640F2B45212212046A2
:103EC000FFF7A7FC40F24B1060433E4901EB400076
:103ED000817840F24B1060433A4B03EB400040784E
:103EE00001EB002082B204212046FFF792FC40F251
:103EF0004B106043334901EB4000017A40F24B1014
:103F00006043304B03EB4000C07901EB002082B2EC
:103F100010212046FFF77DFC40F24B1060432949F9
:103F200001EB4000C21C0C212046FFF712FE10BD21
:103F300010B50446012200212046FFF74FFC012264
:103F400011462046FFF74AFC0520FFF77BFB0321C3
:103F50002046FFF758FE132806D0102201212046E4
:103F6000FFF73CFC002010BD042201212046FFF792
:103F700035FCFF20F7E710B504460122002120465A
:103F8000FFF72CFC012211462046FFF727FC0520F5
:103F9000FFF758FB03212046FFF735FE132813D007
:103FA000102201212046FFF719FC002010BD00005F
:103FB000000801400030014074000020780000201B
:103FC000943F0020A63F0020022201212046FFF757
:103FD00005FC0520FFF736FB03212046FFF713FE03
:103FE000142806D0102201212046FFF7F7FB0020FD
:103FF000DCE7FF20DAE710B5044602220021204664
:10400000FFF7ECFB012211462046FFF7E7FB0520F6
:10401000FFF718FB03212046FFF7F5FD222806D005
:10402000102201212046FFF7D9FB002010BDFF2000
:10403000FCE710B50446102201212046FFF7CEFB15
:104040002046FFF737FF002140F24B106043FE4A45
:1040500002EB4000C17210BD70B500BF1720FFF722
:10406000B5FD064600246DE00120A040304001214E
:10407000A140884265D1E0B20221FFF7C4FD0546A8
:10408000E0B22A460221FFF7A9FB05F0010078B152
:1040900040F24B106043EC4901EB4000C07A40F025
:1040A000020140F24B106043E74A02EB4000C1724C
:1040B00005F0020078B1E0B210220121FFF78EFB7B
:1040C000E0B2FFF7F7FE002140F24B106043DE4AFA
:1040D00002EB4000C17205F0100078B140F24B10C5
:1040E0006043D94901EB4000807A40F0020140F280
:1040F0004B106043D44A02EB4000817205F004008B
:1041000078B140F24B106043CF4901EB4000807A18
:1041100040F0010140F24B106043CB4A02EB4000FB
:10412000817205F0080060B1E0B210220121FFF7B2
:1041300055FB002140F24B106043C34A02EB4000A4
:10414000C172641C022C8FDB1720FFF73FFD00B10A
:1041500084E770BD2DE9F0438DB0044688461646CD
:104160001F4600254146684600F0A3FC39466846D4
:1041700000F0A8FC8146484600F0C6FC20700125EE
:1041800009E03946002000F09DFC8146484600F0D9
:10419000BBFC60556D1CB542F3DB0DB0BDE8F08390
:1041A00070B504460D4640F24B126243A64B03EB3A
:1041B000420202F5197140F24B12624303EB4202D4
:1041C000501CA2A30222FFF7C5FF40F24B1262432C
:1041D0009D4B03EB420202F2822140F24B126243FA
:1041E00003EB4202D01C99A30422FFF7B3FF40F275
:1041F0004B126243944B03EB420202F5237140F2EF
:104200004B12624303EB4202D01D90A30222FFF740
:10421000A1FF40F24B1060438B4A02EB4000457215
:10422000002140F24B10604302EB4000C17270BDB0
:1042300010B5044640F24B126243834B03EB42023B
:1042400002F5197140F24B12624303EB4202501C1B
:104250007EA30222FFF77EFF40F24B1262437A4BAD
:1042600003EB420202F2822140F24B12624303EB63
:104270004202D01C75A30422FFF76CFF40F24B12E0
:104280006243714B03EB420202F5237140F24B1281
:10429000624303EB4202D01D6CA30222FFF75AFFD8
:1042A000022140F24B106043674A02EB400041722A
:1042B000002140F24B10604302EB4000C17210BD80
:1042C000002000BF05E06049C91C095C604A115428
:1042D000401C0328F7DB01215D4A1154704710B5DB
:1042E0005AA304225BA15A48001DFFF733FF57A3CE
:1042F00006225CA156480830FFF72CFF53A3042286
:104300005D4953480E30FFF725FFFFF7D9FF10BD79
:1043100010B5044640F24B1060434B4901EB40009E
:10432000C07A002853D140F24B10604301EB4000AB
:10433000407AB0B92046FFF71EFEFF2808D10121C0
:1043400040F24B106043404A02EB4000C1723EE035
:10435000002140F24B1060433B4A02EB4000C17227
:1043600035E040F24B106043374901EB4000407AA2
:10437000012816D12046FFF7DBFDFF2808D10121D7
:1043800040F24B106043304A02EB4000C1721EE025
:10439000002140F24B1060432B4A02EB4000C172F7
:1043A00015E02046FFF727FEFF2808D1032140F241
:1043B0004B106043244A02EB4000C17207E0002129
:1043C00040F24B106043204A02EB4000C17210BD26
:1043D00030B587B0044629A207CA04AB07C32AA296
:1043E00007CA01AB07C340F24B106043164A02EB09
:1043F000400000F10C012046FFF755FA054640F257
:104400004B116143104A02EB410101F10C0004A978
:1044100000F041FB10B90120FFF737F940F24B11D2
:104420006143094A02EB410101F10C0001A900F0CE
:1044300032FB10B90020FFF728F940F24B1262431B
:10444000014B03EB420225E0A63F00202E000000B6
:10445000943F00203235352E3235352E3235352E0B
:104460003000000031322E34312E3137312E3132CE
:10447000342E302E32000000124A00206C65642079
:104480006F70656E000000006C656420636C6F7374
:104490006500000002F10C0140F24B12624303EB95
:1044A000420202F500702A4600F0B8FA40F24B11C1
:1044B0006143384A02EB410101F10C00294600F04A
:1044C000C6FA002D0BDD40F24B106043314A02EB7F
:1044D000400000F50071AFF6141000F0E5FB40F26B
:1044E0004B1161432B4A02EB410101F50070294653
:1044F00000F0ADFA07B030BD10B5FFF73FFC10BDBE
:1045000010B5FFF7ECFEFFF721FCFFF7F5FF10BD3C
:1045100010B504462046FFF76BFC2046FFF7CAFCA7
:104520002046FFF7F5FE10BD10B504461AA11E483F
:1045300000F0BFFA40F24B116143164A02EB410111
:1045400001F5197019A100F0B4FA40F24B11614362
:10455000104A02EB410101F2822016A100F0A9FAF3
:1045600040F24B1161430B4A02EB410101F523700C
:1045700014A100F09EFA10BD70B505460C46204609
:1045800000F082FA86B2324621462846FFF75EFBEB
:1045900070BD0000A63F00203136392E3235342E52
:1045A00037372E3500000000124A002031392E31F5
:1045B000333600003136392E3235342E37372E3728
:1045C0003900000033372E32380000003EB5054672
:1045D000F74A07CA8DE80700002400BF0DE06846CF
:1045E00000EB4401284600F03DFA28B1694601EB92
:1045F000440000F089FA3EBD641C062CEFDB00206D
:10460000F9E730B585B004461421684600F01FFA7A
:104610002146684600F04DFAE6A1684600F052FADD
:10462000E4A1002000F04EFA0546E349096840F293
:104630004B125143E14A02EB410101F51970294641
:1046400000F037FA05B030BD70B586B005460024DD
:10465000142101A800F0FBF9294601A800F029FA6D
:10466000D4A101A800F02EFA0646D2A1002000F045
:1046700029FA0646304600F047FA0446022C03D1D8
:104680000020CF4981F83C003CB90020CC4981F89A
:104690003C00C9490878FFF7CCFC012C03D103206A
:1046A000C74981F83C0006B070BD30B599B00446EA
:1046B0006421684600F0CBF92146684600F0F9F91C
:1046C000BCA1684600F0FEF90546BAA1002000F042
:1046D000F9F905462946BA4800F0EBF9B5A10020E2
:1046E00000F0F0F905462946B548143000F0E1F92C
:1046F00019B030BD30B599B004466421684600F069
:10470000A6F92146684600F0D4F9AAA1684600F04F
:10471000D9F9A8A1002000F0D5F90546A6490968F5
:1047200040F24B125143A54A02EB410101F28220B3
:10473000294600F0BEF99FA1002000F0C3F905460C
:104740009D49096840F24B1251439C4A02EB4101DA
:1047500001F51970294600F0ACF996A1002000F08F
:10476000B1F905469449096840F24B125143934A06
:1047700002EB410101F52370294600F09AF919B0C6
:1047800030BD00B585B08FA18D48143000F091F98F
:104790008EA18B48283000F08CF91421684600F077
:1047A00056F9874A14328BA1684600F08DFA8B497E
:1047B00008786946FFF7E0FE1421684600F047F9E3
:1047C0007F4A283286A1684600F07EFA834908783D
:1047D0006946FFF7D1FE05B000BD10B5044620467E
:1047E000FFF7A2FEFFF78CFE01212046FFF7D8FC61
:1047F0002046FFF78DFE10BD30B585B0044614216C
:10480000684600F024F92146684600F052F969A193
:10481000684600F057F9054666A1002000F052F9FD
:1048200005462946714800F044F905B030BD70B521
:10483000044600252046FFF7C9FE0546A5F10A00FB
:1048400008284ED2DFE800F0040B0E1D214B4C3936
:104850002046FFF7D1FF01206549086042E0FFF7DD
:1048600090FF3FE0002062490860554981F83C0014
:1048700051490878FFF7DDFB14215C4800F0E7F8A8
:1048800030E02046FFF7E0FE2CE02046FFF70DFF6A
:10489000FFF736FE514908780121FFF781FC4F49A7
:1048A0000878FFF735FE534908780021FFF778FCB8
:1048B00050490878FFF72CFE14E02046FFF71AFF56
:1048C0003D4908780121FFF76BFC3B490878FFF769
:1048D0001FFE4249087848A1FFF74EFE02E001E0C2
:1048E00000E000BF00BF002070BD0020704770478F
:1048F00010B5044640F24B116143304A02EB4101CE
:1049000001F519702E49283100F0D3F840F24B1010
:1049100060432A4901EB40002DA1097880F88C12F0
:1049200040F24B106043254901EB400028A1097873
:1049300080F8821200212046FFF732FC2046FFF764
:10494000E7FD10BD10B5044624B1012C03D0022CA4
:104950002CD11CE02AE02648006848B11F4908789D
:1049600028A1FFF709FE0320154981F83C000DE05E
:104970001E4A26A1274800F0A7F9184908782549BA
:10498000FFF7FAFD01200E4981F83C000EE0FFF729
:10499000AEFF002016490860104908781EA1FFF7F5
:1049A000EBFD0020064981F83C0000BF00BF10BDB0
:1049B0003C5000083A00000080000020A63F002084
:1049C000124A00203936333235380000393630315A
:1049D000000000004E554D3A257300007C00002079
:1049E000534552504F52543A257300004F4A00200D
:1049F0008C00002084000020434F4E4E454354203D
:104A000031000000726563656976650043414C4C76
:104A10003A257300A64100206E6F000040EA0103B2
:104A20009B0703D009E008C9121F08C0042AFAD264
:104A300003E011F8013B00F8013B521EF9D2704728
:104A4000D2B201E000F8012B491EFBD270470022D0
:104A5000F6E710B513460A4604461946FFF7F0FF7D
:104A6000204610BD30B505462A460B4612F8010B0C
:104A700013F8014B08B1A042F8D01CB1002802D0B5
:104A80006D1CF1E7284630BD421C10F8011B0029BF
:104A9000FBD1801A704710B5002200E0521C835CE5
:104AA0008C5CA34201D1002BF8D1D8B2E1B2401AFC
:104AB00010BD034611F8012B00F8012B002AF9D193
:104AC0001846704770B50F4D00B92868002412E0F1
:104AD0000A4602E09E4203D0521C1378002BF9D103
:104AE000DAB2224305D02BB124B1002100F8011B1A
:104AF00004E00446401C0678002EE9D128602046D8
:104B000070BD00009000002070B5064600F0F0F87F
:104B1000046805460A220021304600F018F82C608F
:104B200070BD30B50B46014600202022012409E06B
:104B300021FA02F59D4205D303FA02F5491B04FA56
:104B400002F52844151EA2F10102F1DC30BD2DE969
:104B5000F04791460F4680460446002614F8015B54
:104B60002DB100F03FF80068405DC007F6D12B2D55
:104B700002D02D2D18D0641E4A463946204600F03A
:104B800035F827B13968A14201D1C7F80080710515
:104B90004FF002040BD54042002803DD00F0A8F8D6
:104BA0000460A007BDE8F08746F48066E4E70028CB
:104BB000F8DA00F09DF804606FF00040F2E70000C2
:104BC000064C074D06E0E06840F0010394E807005A
:104BD00098471034AC42F6D3FBF78CFAD05000085B
:104BE000F050000800487047CC5000082DE9F05FF5
:104BF00082460078002715468B460AF10104B94623
:104C0000302801D09DB113E014F8010B012778285A
:104C100003D0582801D045B10AE00DB1102D07D1BD
:104C20000027102514F8010B02E0082500E00A25F2
:104C30000026B0460EE005FB080005FB06F1012743
:104C400001EB10461FFA80F8B6F5803F00D3B94655
:104C500014F8010B294600F018F80028EBDABBF134
:104C6000000F05D00FB1641E00E05446CBF80040A1
:104C7000B9F1000F06D000F03BF802210160C81E18
:104C8000BDE8F09F48EA0640FAE73A2800D23038FB
:104C900020F02002412A01D3A2F13700884201D33B
:104CA0004FF0FF30704700000FB4054B10B503A95B
:104CB000044A029800F030F810BC5DF814FB0000C4
:104CC00097340008680000200FB4084B10B504A901
:104CD00002AA039800F020F8044602A9002000F080
:104CE000F7F8204610BC5DF814FB0000D14E000818
:104CF000004870479400002002E008C8121F08C155
:104D0000002AFAD170477047002001E001C1121F4C
:104D1000002AFBD1704700002DE9FF4F8BB09A4667
:104D20000F460546002606E025280BD052460D9971
:104D300090476D1C761C28780028F5D10FB03046BE
:104D4000BDE8F08F0024A0460122604900E0044342
:104D500015F8013F203B02FA03F00842F7D128780A
:104D60002E2817D115F8010F44F004042A280ED07C
:104D70006FF02F022878A0F1300109290AD808EB3A
:104D8000880102EB410100EB01086D1CF2E757F8C6
:104D9000048B6D1C287869283ED006DC0028CDD015
:104DA00063280BD0642804D136E0732810D075280E
:104DB0004BD052460D999047761C85E017F8040BAE
:104DC0008DF8000000208DF80100E946012003E085
:104DD00057F8049B4FF0FF3061074FF0000401D4F7
:104DE0000AE0641C44450DDA8442FADB19F8041029
:104DF0000029F6D106E0641C8442FCDB19F804109B
:104E00000029F8D1264404E019F8010B52460D9907
:104E10009047641EF8D257E001CF4FF00A0B0028EC
:104E200002DA40422D2102E0210504D52B218DF824
:104E30002410012103E0E10705D02021F7E70DF15F
:104E4000200908910CE00021F9E701CF4FF00A0B8F
:104E5000F9E75946FFF765FE01F1300209F8012D27
:104E60000028F6D1ADEB090000F1200B600701D45A
:104E70004FF00108D84502DDA8EB0B0000E0002050
:104E80008046002406E009A85246005D0D9990472F
:104E9000641C761C08988442F5DB04E030205246FE
:104EA0000D999047761CB8F10001A8F10108F5DCD6
:104EB00005E019F8010B52460D999047761CBBF19D
:104EC0000001ABF1010BF4DC6D1C34E70928010093
:104ED0000A68531C0B60107070470000010002004C
:104EE00001000300010002000100040001000200B3
:104EF00001000300010002000100050001000200A2
:104F00000100030001000200010004000100020092
:104F10000100030001000200010006000100020080
:104F20000100030001000200010004000100020072
:104F30000100030001000200010005000100020061
:104F40000100030001000200010004000100020052
:104F5000010003000100020001000700010002003F
:104F60000100030001000200010004000100020032
:104F70000100030001000200010005000100020021
:104F80000100030001000200010004000100020012
:104F90000100030001000200010006000100020000
:104FA00001000300010002000100040001000200F2
:104FB00001000300010002000100050001000200E1
:104FC00001000300010002000100040001000200D2
:104FD00001000300010002000100000001000000C8
:104FE000785634120A001000010020004001010030
:104FF0001C0014000200050010001F00010000004A
:105000000500100000000000000004000000040083
:105010000000040001000400010001000100800004
:1050200001001600100001008000010001002000B6
:105030005C00E80301001E016E0E000031323133C6
:105040003134313531363137004040404040404006
:10505000404041414141414040404040404040404B
:1050600040404040404040404005020202020202EF
:10507000020202020202020202202020202020203E
:105080002020200202020202020290909090909052
:105090001010101010101010101010101010101010
:1050A0001010101002020202020288888888888884
:1050B0000808080808080808080808080808080870
:1050C00008080808020202024000000049500008D7
:1050D000F05000080000002098000000F84C000884
:1050E0008851000898000020D04D0000084D0008AD
:1050F000000000000102030401020304060708097E
:105100000204060800A24A0400000000000000009B
:105110000102030406070809000000000000000067
:10512000000000000000000000000000000000007F
:10513000000000000000000000000000000000006F
:10514000000000000000000000000000000000005F
:10515000000000000000000000000000000000004F
:10516000000000000000000000000000000000003F
:105170000100000002000000030000000000000029
:08518000000000000000000027
:04000005080000ED02
:00000001FF
